:020000040800F2
:10000000B80D0020CD00000831160008B11200081C
:1000100000000000000000000000000000000000E0
:100020000000000000000000000000001B1E00088F
:100030000000000000000000791600081D1E0008E6
:10004000DF00000800000000DF000008DF000008FB
:10005000DF000008DF000008DF000008DF00000804
:1000600000000000DF000008DF000008DF000008DB
:10007000DF000008DF000008DF00000800000000CB
:10008000DF000008DF000008DF000008DF000008D4
:10009000DF000008DF000008DF000008DF000008C4
:1000A000DF000008DF000008DF000008DF000008B4
:1000B000DF000008DF0000080348854600F058F81C
:1000C0000048004765340008B80D00200448804708
:1000D00004480047FEE7FEE7FEE7FEE7FEE7FEE72F
:1000E000811E0008B900000830B50B46014600200B
:1000F0002022012409E00D46D5409D4205D31D462E
:100100009540491B2546954040191546521E002D25
:10011000F1DC30BD10B5202A04DB0846203AD0407F
:10012000002110BD0B46D340D0402024A21A91409C
:100130000843194610BDD2B201E00270401C491EAE
:10014000FBD270470022F6E710B513460A46044674
:100150001946FFF7F0FF204610BD0321001D401E89
:10016000037812021A43491EF9D510467047000061
:10017000064C0125064E05E0E36807CC2B430C3CFA
:1001800098471034B442F7D3FFF79AFF0C3E0008AB
:100190002C3E000800B589B020216846FFF7D2FF49
:1001A00069460C4802F05AFD002802D0022009B02E
:1001B00000BD032100980904884209D2064800F0D6
:1001C00085F8002801D00320F1E700F007F8EEE7FA
:1001D0000020ECE77A380008000001087CB5002018
:1001E000009001901248134C0125861420606B4644
:1001F00032461149114802F071FC002801D002205A
:100200007CBD00980190B04200D2002500980A49B8
:100210008208206800F094F8002801D004207CBDFA
:100220002068019940182060012DE0D000207CBD9D
:1002300000000108000000204C0000207C04002089
:1002400000B5002200F002F800BD000030B50E4BF2
:1002500005465C7A0120012C15D8587A00241C54DC
:10026000587A8000C01845605D7A184608302A54D4
:10027000587A421C5A72303008703A2048702F2049
:100280008870CC70002030BDAC07002000B5002184
:1002900000F002F800BD000010B50B4902464B7A91
:1002A0000120002B0FD01278303AD2B293005B18A5
:1002B0005C68002C07D000208A1858601072487AB9
:1002C000401E4872002010BDAC0700207FB50025FD
:1002D0000446039500F0E2F9094803A9001BC00A8F
:1002E000029000950194684600F02EF9044600F053
:1002F0008DF9002C02D0012004B070BD0020FBE776
:100300000000040800B587B000F0C8F9684600F0A6
:100310006BF900F07BF903480299884300D0022072
:1003200007B000BDF0FF0F0010B500F0B7F90349AA
:100330003420C86000F06AF910BD000000200240BF
:10034000F7B582B016460446002500F0A7F9114F14
:1003500017E0A800039900900A58002321460220C4
:1003600000F05EF9002802D0032005B0F0BD03992B
:10037000009822680858824201D00220F5E7241D27
:100380006D1CB54201D2BC42E3D900F03FF9002018
:10039000EBE70000FCFF030806490020C86106489F
:1003A0000169042211430161016940221143016185
:1003B0007047000030070020002002400648C06956
:1003C0000621084003D0400703D5CC207047AA205F
:1003D0007047BB207047000000200240064A002101
:1003E000D16106490A6902231A430A614861086912
:1003F000402210430861704730070020002002406F
:1004000010B5054B0022DA61044A13690124234325
:100410001361018010BD0000300700200020024061
:1004200010B50B4A0020D168CB060A4904D5C8692B
:1004300002231843C8611020D3685B0705D5CB6938
:1004400001242343CB6104210843D06010BD000088
:10045000002002403007002070B5054600F0DCF9AE
:100460000646104C0AE0681C08D0002D04D000F0AD
:10047000D3F9801BA84201D9032070BDE068C007F2
:10048000F1D1E068800601D52020E060E068C00678
:1004900002D4E068400703D5FFF7C2FF012070BD1A
:1004A000002070BD002002400020704710B50400FD
:1004B0000DD0607F002803D12077204600F024F87B
:1004C000022060772046FFF7EFFF002801D00120CF
:1004D00010BD6079002814D0206921680861216866
:1004E0008868602290436269104388602168886848
:1004F00080229043A2691043886001206077002029
:1005000010BD0020C043E8E708B5006805498842EF
:1005100007D10548426940210A43426140690840C9
:10052000009008BD003002400010024031B500F0DC
:1005300073F9009C0546601C00D0641C00F06CF947
:10054000401BA042FAD338BDF8B5054623480F46F4
:10055000017E012601290BD0012101762868204C5B
:10056000012807D02046FFF777FF002813D030E09E
:100570000220F8BD2046FFF76FFF002829D1FFF7C2
:100580000BFF2046FFF768FF064616480169042264
:10059000914301611DE00020C04338606C6812E0A7
:1005A0002046FFF71BFF0E48FFF756FF06460D4893
:1005B000026902218A430261002E01D03C6008E0FA
:1005C0000120C0022418A868C10268680818A04267
:1005D000E6D80248002101763046F8BD30070020F9
:1005E00050C300000020024070B504460720064DAD
:1005F0002060286AA060FFF7E1FE2073E869772198
:10060000000A0840607370BD002002400348016981
:100610008022114301610020704700000020024049
:10062000F0B51FB407461A480024017E15461E4641
:10063000012907D0012101761648FFF70DFF002898
:1006400003D020E0022005B0F0BD012F02D0022F20
:1006500000D00427220128463146FFF75BFD81B216
:10066000019862001018FFF7CBFE0A48FFF7F4FE6E
:1006700009490A69520852000A61002803D1641C22
:10068000E4B2BC42E6D3024900220A76DBE700006E
:100690003007002050C3000000200240064900201F
:1006A0000A69120607D5054A4A60054A4A6009697F
:1006B000090600D50120704700200240230167454C
:1006C000AB89EFCDF8B500238DE001249C40A44612
:1006D00022407DD04C68022C01D0122C0CD1DC08B9
:1006E000A40027183C6A5D07ED0E0F26AE40B44308
:1006F0000E69AE4026433E6205685E000324B440A6
:100700000F79A543BF07BF0FB7402F4307604D6860
:10071000012D05D0022D03D0112D01D0122D0ED1A7
:100720008568CF68A543B7402F4387604768654613
:10073000AF430D79ED06ED0F9D403D434560C56823
:10074000A5438C68B4402C43C4604C68E40049D590
:10075000284CA56901263543A561A4699D0834404C
:100760000094254CAD002F19BC689D072E0F0F2556
:10077000B540AC430925ED06A84201D100250FE0A4
:100780001E4DA84201D101250AE01D4DA84201D10C
:10079000022505E01B4DA84201D1032500E00525F7
:1007A000B5402543BD60184C25684E689543F60357
:1007B00000D51543256065684E689543B60300D59E
:1007C00015436560A5684E689543F60202D500E0C2
:1007D00008E01543A560E5684E689543B60200D56C
:1007E0001543E5605B1C0A681446DC4000D06CE7EA
:1007F000F8BD000000100240000001400004004865
:1008000000080048000C004800040140002A01D004
:10081000816170478162704701480068704700003D
:100820003C00002002480168491C0160704700003C
:100830003C00002010B506480168102211430160F9
:10084000002000F007F800F017F8002010BD0000AD
:100850000020024010B5044600F0BCF87D21C9001C
:10086000FFF742FC00F00CFD00222146501E00F074
:1008700017F8002010BD000008B508488169012262
:1008800011438161816911400091C26901040A43E9
:10089000C261C0690840009008BD0000001002401D
:1008A00010B500F0C7FE10BDF8B5054644480E4629
:1008B0000068C007C00FB0420AD241480168490829
:1008C0004900314301600068C007C00FB0425CD1ED
:1008D00028783C4C800705D56068F0218843A968DA
:1008E000084360602878C0073FD06868012813D0AB
:1008F0002168022813D08907002946DA616889082F
:10090000890001436160FFF787FF69680746012995
:100910000DD0022917D024E021688903ECE7890172
:10092000EAE7FFF779FFC11B2748814217D86068C3
:100930000007800F0128F4D117E0FFF76DFFC11BFE
:10094000214881420BD860680007800F0228F4D14B
:100950000BE0FFF761FFC11B1B48814201D9032057
:10096000F8BD60680007800FF3D115480168C9071A
:10097000C90FB1420BD901684908490031430160F0
:100980000068C007C00FB04201D00120F8BD287830
:10099000400706D56068072109028843E9680843D3
:1009A000606000F01DF86168084A0906090F515C93
:1009B000C840074908600020FFF74CFF0020F8BD41
:1009C0000020024000100240881300008238000816
:1009D00040000020014800687047000040000020EF
:1009E00010B511A30FCB88B06C460FC412A30FCB68
:1009F0000FC415494A680C20134603401348042BC2
:100A00000FD0082B0DD193021B0F6C46E45CC96A12
:100A100004AB0907090FD203595C920FFFF764FB7F
:100A2000604308B010BD0000020304050607080972
:100A30000A0B0C0D0E0F1010010203040506070827
:100A4000090A0B0C0D0E0F100010024000127A0064
:100A5000FEB504460078D24DC00749D0686800074B
:100A6000800F012820D068680007800F022804D179
:100A70006868C003800F022816D001206268000455
:100A8000012A18D08100002A01D0052A17D02A682F
:100A900082432A60286888432860606800281BD049
:100AA000FFF7BAFE064613E02868800320D5606889
:100AB000002876D01CE0296801432960EDE72A6808
:100AC0000A432A60F7E7FFF7A7FE801B642869D86E
:100AD00028688003F7D50BE0FFF79EFE064604E08A
:100AE000FFF79AFE801B6428F1D828688003F7D4AA
:100AF00020780126800700283DDA68680007800F0B
:100B000013D068680007800F022804D16868C0030A
:100B1000800F012809D0E068002828681CD03043E5
:100B20002860FFF779FE07460BE0286880070BD5A1
:100B3000E068012835D107E0FFF76EFEC01B0228F0
:100B4000C5D828688007F7D52868F8218843216927
:100B5000C900084328600EE0400840002860FFF705
:100B60005BFE074604E0FFF757FEC01B0228AED825
:100B700028688007F7D42078000723D5E06900288B
:100B8000686A10D030436862FFF746FE074604E00B
:100B9000FFF742FEC01B022899D8686A8007F7D584
:100BA00010E0FAE0A4E0400840006862FFF734FE7D
:100BB000074604E0FFF730FEC01B022887D8686AAA
:100BC0008007F7D4207804274007002860DA002047
:100BD0000190E869C00008D4E969B8060143E961F9
:100BE000E96901400120009101906E480168C90542
:100BF00011D40168821511430160FFF70DFE0090CA
:100C000005E0FFF709FE0099401A642870D865488E
:100C10000068C005F5D5A06801280AD0002801D0D9
:100C2000052810D0286A400840002862286AB84386
:100C300001E0286A30432862A068002812D0FFF73C
:100C4000EBFD00900AE0286A38432862F1E7FFF7DD
:100C5000E3FD0099411A5448814249D8286A800727
:100C6000F5D50DE0FFF7D8FD009006E0FFF7D4FDC5
:100C70000099411A4C4881423AD8286A8007F5D435
:100C80000198002804D0E969012000078143E96147
:100C90002078C00635D5606901280CD0401D686BEE
:100CA00023D038436863686B400840006863FFF7EF
:100CB000B3FD064622E0686B38436863686B3043D7
:100CC0006863FFF7A9FD064604E0FFF7A5FD801B5A
:100CD00002285BD8686B8007F7D5686BF8218843DA
:100CE000A169C900084368630BE0B8436863F4E78F
:100CF0004CE0FFF791FD801B022847D8686B800706
:100D0000F7D4206A002846D069680907890F0229AC
:100D100043D0012636060228286805D0B043286053
:100D2000FFF77AFD044633E0B0432860FFF774FD17
:100D3000074604E0FFF770FDC01B022826D828688C
:100D40008001F7D4E86AE16A000900010843E8621B
:100D5000616AA06A084369687B22D2039143084311
:100D60006860286830432860FFF756FD044604E0B9
:100D7000FFF752FD001B022808D828688001F7D52C
:100D800009E0FFF749FD001B022801D90320FEBD41
:100D900028688001F5D40020FEBD0120FEBD0000C2
:100DA0000010024000700040881300004030407F77
:100DB0007047F8B5040007D0002625464035A662E6
:100DC000687F002802D005E00120F8BD2E7720467C
:100DD00000F04CF802236B772068016840229143B1
:100DE00001600721E0680902884201D9002201E080
:100DF000012212030F273F02B84202D0884200D0DE
:100E0000A662276B002F05D1884201D9236301E038
:100E100001202063A1686068636908432169194360
:100E200008430123A1695B0219400843E1690843B3
:100E3000216A0843A16A084321680860616B606AFF
:100E4000A36908431B0C0427E1683B40194308438E
:100E50002168104348602068C1697A029143C161EA
:100E60002666012068770020F8BD000010B586B026
:100E7000044614216846FFF765F911492068884245
:100E80001CD11048826981140A43826182690A4038
:100E90000592426949010A43426140690840059050
:100EA000E020009002200190002103200390029195
:100EB000049109206946C006FFF704FC06B010BD86
:100EC0000030014000100240FFB50646044640369F
:100ED000307F002781B00D46012809D001203077EE
:100EE000FFF79AFC0090707F012804D002279DE054
:100EF000022005B0F0BD002D72D0039800286FD0FD
:100F00000320707700202066A5630399A1870399C9
:100F1000E1872064B080F0802065E0640121A06852
:100F2000C903884205D12068016801229203114358
:100F3000016020680168490603D40168402211431A
:100F400001600720E16800028142606823D900281F
:100F500002D0E08F01281AD121682888C86005E0F6
:100F600020688168890706D52988C160E08F401E06
:100F7000E087AD1C0BE0049800283ED0401C06D052
:100F8000FFF74AFC0099411A0498814235D2E08F5C
:100F90000028E5D136E0002802D0E08F01282ED1CC
:100FA000E08F012803D921682888C8600CE02168F7
:100FB000287808730FE020688168890711D5E18FD0
:100FC000012906D92988C160E08F801EE087AD1C09
:100FD00015E029780173E08F401EE0876D1C0EE05C
:100FE00023E00498002808D0401C08D0FFF714FC28
:100FF0000099411A0498814201D3032716E0E08F3B
:101000000028D8D12046009A049900F027FE002835
:1010100001D020202066A068002803D12068C16884
:1010200080680090206E002800D001270120707792
:101030000020307738465CE7FFB5044683B00120D6
:10104000254640350090287F00270E4601280FD006
:1010500001202877FFF7E0FB0190687F6168012895
:101060000DD0CA1FFD3A08D1A168002905D102E0C0
:10107000022007B0F0BD042801D00227FAE0002EBC
:101080007CD005980028FBD006980028F8D0687F0F
:10109000042801D005206877002020660599216486
:1010A0000699E9800699A980A6630699E1870699C1
:1010B000A187E06420650723E1681B02994202D8FA
:1010C000E888012806D920684268012109038A437B
:1010D000426005E02068416801221203114341602B
:1010E00020680168490603D4016840221143016069
:1010F000E1686068994242D9002802D0E08F012857
:1011000035D121683088C860E08F401EE087B61C6A
:101110002DE0009800280ED0E08F00280BD020682A
:101120008168890707D53188C160E08F401EE0875C
:101130000020B61C0090E88800280ED02068816846
:10114000C9070AD0C068059908800598801C0590D9
:10115000E888401EE880012000900C98401C06D0D2
:10116000FFF75AFB0199411A0C9881426DD2E08F2A
:101170000028CED1E8880028CBD16EE079E00028A5
:1011800002D0E08F012862D1E08F012807D92168C1
:101190003088C860E08F801EE087B61C57E0216869
:1011A00030780873E08F401EE087761C4FE000988F
:1011B000002818D0E08F002815D0206881688907A2
:1011C00011D5E18F012906D93188C160E08F801ED9
:1011D000E087B61C05E031780173E08F401EE087A0
:1011E000761C00200090E888002824D020688168C0
:1011F000C90720D0E988012912D9C068059908805B
:101200000598801C0590E888801EE880E888012801
:101210000FD820684168012212031143416008E0A1
:10122000017B059801700598401C0590E888401ED8
:10123000E880012000900C98401C08D0FFF7ECFAE1
:101240000199401A0C99884201D3032712E0E08FDC
:101250000028ACD1E8880028A9D12046019A0C9931
:1012600000F0FCFC002801D020202066206E002821
:1012700000D0012701206877002028773846F8E65B
:10128000094910B5401E884201D9012010BD074C04
:1012900060610321081F00F0CDF90020A061072044
:1012A0002061002010BD0000FFFFFF0000E000E013
:1012B000FEE710B5012000F005F80520FFF736F92C
:1012C00010BD000010B50446002208210548FFF7B4
:1012D0009DFA200900F008F82007000F00F004F83C
:1012E00010BD00000004004870B504460246082006
:1012F000164D024080212846FFF788FA2246042036
:10130000024040212846FFF781FA2246022002408F
:1013100020212846FFF77AFAE207D20F102128464B
:10132000FFF774FA01220925D403ED062146284669
:10133000FFF76CFA322000F035F8002221462846EB
:10134000FFF764FA322000F02DF870BD0004004869
:1013500008B509A212680092042900D30021074AA7
:10136000D07011716A46515C081880210843C0B2E0
:10137000FFF7A8FF08BD0000004014540B00002038
:1013800010B50446012208210548FFF73FFA20095D
:10139000FFF7AAFF2007000FFFF7A6FF10BD000010
:1013A00000040048F8B5134C064660697D25ED0041
:1013B0002946401CFEF798FE0090FFF72DFA0746DD
:1013C0002946A0694F430099FEF78EFE281A3F1860
:1013D000FFF722FA7D210546C900A0694D43009917
:1013E000FEF782FE7D21C900081A2818C01BB042F2
:1013F000EED3F8BD00E000E010B5054904220878FE
:101400001043087008210843FFF75CFF10BD00007F
:101410000B000020F0B585B0012001900320304C76
:101420000025082603906946009602952046FFF79E
:1014300049F96001009009206946C006FFF742F9AA
:101440001020009069462046FFF73CF920276946A6
:1014500020460097FFF736F9402000906946204665
:10146000FFF730F98020009069462046FFF72AF9FF
:1014700002E00120FFF75AF8FFF7CEF9C828F8D3A9
:10148000184C0320E57025716670FFF72DFF0520CD
:10149000FFF74CF80320FFF727FF0520FFF746F87A
:1014A0000320FFF721FF0520FFF740F80220FFF798
:1014B0001BFF0520FFF73AF860783843FFF702FF7B
:1014C00004202070FFF798FFFFF7F3FE0220A070C2
:1014D0000620FFF7F7FE0520FFF728F805B0F0BD5E
:1014E000000400480B00002070B51546FFF730FFE0
:1014F000134C15E0E078142807D30020E070217920
:10150000491CC9B22171FFF723FF28780A280BD0A4
:101510000D280FD0FFF734FFE078401CE0706D1C01
:1015200028780028E6D170BD2079401CC1B2217115
:10153000E07801E021790020FFF70AFFEFE70000E3
:101540000B00002010B504490448FEF779FE02495B
:10155000491E087010BD000035000020200000204A
:10156000F0B587B014216846FEF7ECFD1C484269CF
:10157000012149040A43426142690A4005924269D5
:1015800049000A434261406909260840F606059071
:10159000002210213046FFF739F9124F0022F821BE
:1015A0003846FFF733F90321002289033046FFF75D
:1015B0002DF90D48002401250090029469460195FB
:1015C00003943046FFF77EF8F820009002946946B5
:1015D000019503943846FFF775F807B0F0BD000099
:1015E000001002400004004810C0000010B50F4871
:1015F0000D490160FF210531416000210722816012
:1016000012020161C2604161C161012201625202A4
:101610004162826181620722C262016308214163E3
:10162000FFF7C7FB10BD000000300140CC060020D2
:10163000704700008307FF22DB0E9A408907090EDE
:10164000994000280BDA0007000F08388308084883
:101650009B001818C36993430B43C3617047830809
:1016600004489B001B181868904308431860704793
:1016700000ED00E000E400E070470000074801686A
:10168000074A11404203914207D14168054A9160DF
:101690005160006880F3088808477047000001081F
:1016A0000000FE2F1000002006484178002902D0DB
:1016B0004178491E41708178002902D08178491E05
:1016C000817070471C0000207CB5154D0024FF2060
:1016D00000F002FB641C0A2CF9DB00F0B7FA402092
:1016E00069460870002048708870C870087195209D
:1016F000487100246E46305D00F0EEFA641C062C42
:10170000F9DB00E06D1E00F0CFFA012801D0002DBA
:10171000F8D1FF2000F0E0FA0249012048707CBDBA
:10172000FF1F00000800002010B5064C322020707A
:1017300000F0BAFA00F0B8FAFF2802D021780029A8
:10174000F8D110BD1E000020F8B50446104D0A2047
:101750000E46287000F0A8FAFF2803D0FE2805D016
:101760000020F8BD28780028F4D1F9E72746651C49
:1017700000F09AFA38706C1C00F096FA2870B61EC9
:10178000F4D100F091FA00F08FFA0120F8BD0000CA
:101790001D00002070B50C460546FFF7C5FFFF2869
:1017A00001D0FF2070BD284600F096FA200E00F010
:1017B00093FA2002000E00F08FFA2004000E00F0D1
:1017C0008BFAE0B200F088FA0020402D06D0482DB8
:1017D00006D000F081FA4C2D06D007E0952000E0FD
:1017E000872000F079FA01E000F05EFA0A2400F0A8
:1017F0005BFA0106D6D5641E2406240EF7D170BD0F
:1018000070B50E4604460025FFF78EFFFF2827D14E
:10181000304600F061FAFD2E1ED00026207800F040
:101820005BFA6078A41C00F057FA761E3606360E76
:10183000F4D100F039FA00F037FA00F035FA044636
:10184000C006C00E052803D06D1CEDB2402DF4D9A2
:1018500000F02AFA0028FBD0E006C00E052801D0CF
:10186000002070BD012070BDF8B5002801D0012016
:10187000F8BD4A480078800702D548480078F8BD8E
:10188000FFF722FF00F0E2F9002421464020FFF795
:1018900081FF012872D1424E64203070FF21AB31AC
:1018A0004820FFF777FF01280DD000217720FFF7B0
:1018B00071FF012841D800216920FFF76BFF012843
:1018C0003BD8022440E000256F4600F0EDF9785542
:1018D0006D1CEDB2042DF8D36846807801284DD1F7
:1018E0006846C078AA2849D1450700217720FFF72C
:1018F00051FF012805D829466920FFF74BFF002832
:1019000002D030780028F0D13078002836D000217D
:101910007A20FFF73FFF002830D1002400F0C4F9FF
:101920003855641CE4B2042CF8D3684600784006AD
:1019300001D5062422E0022420E0012401E0022C4B
:1019400002D00021412007E000217720FFF722FF8D
:10195000012805D800216920FFF71CFF002802D0CC
:1019600030780028EBD13078002806D001214902D8
:101970005020FFF70FFF002800D00024074DAC7067
:1019800000F092F9002C04D028784008400028701C
:1019900001E0002068702878F8BD000008000020F1
:1019A0001D0000207FB515460E46002802D00420F9
:1019B00004B070BD01244A48052E04D00078C00749
:1019C00017D00320F4E746492A784978002A05D041
:1019D000012A08D0022A09D004247EE0002906D07A
:1019E0000021417003E0FFF76FFE00E06970002402
:1019F00073E000F02BF90B2E4CD006DC002E44D007
:101A0000012E07D0022E65D13BE00C2E45D00D2EC5
:101A100060D150E000214920FFF7BCFE00285AD1D8
:101A200010216846FFF790FE002854D068460078E1
:101A30008009012868461CD0407901076846807AF1
:101A4000090FC00909186846407A8007400F091835
:101A50006846007A82096846C07980001218684694
:101A600080798007000D1018401CC91F884028602D
:101A70001FE0417A007A0002401C08180004800927
:101A8000F5E701204002288013E0FFF74DFEFF2814
:101A90000FD020E00021492001E000214A20FFF77B
:101AA00079FE002817D110212846FFF74DFE0028A7
:101AB00011D000240FE000217A20FFF76BFE0028F0
:101AC00008D1002400F0F0F82870641CE4B26D1C0A
:101AD000042CF7D3042400F0E7F8204668E7000060
:101AE00008000020F8B51C4615460E46002807D110
:101AF000002C05D020480178C90703D00320F8BD89
:101B00000420F8BD8078400700D4550200F09EF80C
:101B100001277F02012C294605D05220FFF73AFE0B
:101B200000280ED01DE05120FFF734FE00281DD103
:101B300039463046FFF708FE002817D000F0B4F809
:101B400018E039463046FFF7FFFD002805D0FF3684
:101B5000FF36641E0236002CF3D100214C20FFF723
:101B600019FE00F0A1F8002C02D103E000F09CF86F
:101B70000120F8BD0020F8BD08000020002801D099
:101B800001207047014800787047000008000020DD
:101B9000F8B51C4616460F46002807D1002C05D084
:101BA000294D2878C00703D00320F8BD0420F8BDD4
:101BB0002878400701D50220F8BDA878400700D456
:101BC000560200F043F8012C11D0A878800707D501
:101BD00000217720FFF7DEFD21465720FFF7DAFDD1
:101BE00031465920FFF7D6FD00280FD020E03146BE
:101BF0005820FFF7CFFD002820D1FE213846FFF7FF
:101C0000FFFD00281AD000F04FF81AE0FC213846FA
:101C1000FFF7F6FD002805D0FF37FF37641E0237B7
:101C2000002CF3D1FD210020FFF7EAFD002805D0AC
:101C300000F03AF8002C04D00120F8BD00F034F890
:101C4000FAE70020F8BD00000800002010B50920C8
:101C500000221021C006FEF7D9FD10BDF8B50F46D1
:101C60000B4615460092032104460022C90200F0EB
:101C700043F82026002812D13B460022802120462E
:101C8000009500F084F8002809D103213B4600228A
:101C900049022046009500F02FF8002803D0206E5E
:101CA000304320660320F8BD0EB5FF21684601725F
:101CB000002101710748FFF779F80128FAD1642063
:101CC0000090012301AA02A90248FFF7B5F968466E
:101CD00000790EBDCC06002001B50648FFF766F876
:101CE0000128FAD16423012269460248FFF7ECF883
:101CF00008BD0000CC060020F8B51D4617460E466C
:101D000004463DE0032149028E4205D1002F03D154
:101D1000017B684601700078681C31D0002D05D029
:101D2000FEF77AFD0699401AA84229D32068416837
:101D3000E022914341606068C11FFD390CD101214F
:101D4000A068C903884202D04911884204D12068A2
:101D500001684022914301600120A16A4003814251
:101D600007D121680A6882430A6021680A68024331
:101D70000A60012040346077002020770320F8BDFE
:101D8000206881683140B942BCD10020F8BDF8B567
:101D90001D4617460E46044633E0681C31D0002D20
:101DA00005D0FEF739FD0699401AA84229D32068CC
:101DB0004168E022914341606068C11FFD390CD148
:101DC0000121A068C903884202D04911884204D188
:101DD000206801684022914301600120A16A40030C
:101DE000814207D121680A6882430A6021680A6833
:101DF00002430A60012040346077002020770320EE
:101E0000F8BD206881683046884304D00020B8427D
:101E1000C3D10020F8BD0120F9E7704710B507488D
:101E20000178491C017001780A2903D3002101704F
:101E3000FFF73AFCFEF7F6FC10BD00001C00002086
:101E400010B590B030216846FEF77CF900240220DE
:101E50000F9400900D94012003900E941020049094
:101E60000C9408946846FEF7F3FD07200C900D943F
:101E70000E9400210F940CA8FEF716FD10B010BDB3
:101E8000134801680122114301604168114A114061
:101E900041600168104A114001600168012292040A
:101EA0009143016041683F22120491434160C16A3D
:101EB00009090901C162016BFF22143291430163D8
:101EC000416B49084900416300218160704700006F
:101ED000001002400CB8FF08FFFFF6FE10B5FFF738
:101EE000C3FCC0B210BD10B5FFF75CFDC0B210BDA1
:101EF00010B5FFF7F7FDC0B210BD10B5FFF73EFEFD
:101F0000C0B210BD10B5FFF743FEC0B210BD02E075
:101F100008C8121F08C1002AFAD170477047002074
:101F200001E001C1121F002AFBD1704710B5002447
:101F3000054800F0B3FC002800D004240348FEF755
:101F4000A5F9204610BD00007C04002004000020FC
:101F500070B50446FF30FF30002202300271521E7D
:101F6000C262204601F0EFFA002801D0032070BDC4
:101F7000FF20FF30005B1049884201D0022070BD75
:101F800020463730FEF7E9F83621095D00020843A4
:101F90000A4D0002A8420AD020465330FEF7DDF871
:101FA0004034A17C000208430002A84201D1002075
:101FB00070BD012070BD000055AA000000464154CC
:101FC00000E0401C0278002A01D08A42F9D1D0B248
:101FD00070470000F0B50022FF30184BFF30144668
:101FE00002300C2555435E59002E0CD00768BE42C6
:101FF0000AD1ED186E688768BE4205D12D89C68862
:10200000B54204D000E00124521C022AE9D3022A7E
:1020100002D000290FD105E0002C0AD1022908D0F6
:102020001220F0BD0C204243D0184089C11FF9395D
:1020300001D00020F0BD1020F0BD000050070020AE
:1020400030B50021054B0C460C224A439D58854271
:1020500000D19C50491C0229F6D330BD5007002006
:10206000FF3010B5FF300230446A0068241DFF3095
:10207000FF3002308278480A1146FEF735F802CC6C
:10208000002904D0884204D3401A241DF7E7002019
:1020900010BD2168081810BDFF30FF3002304269C2
:1020A000891E921E8A4201D8002070478278806A79
:1020B0004A43101870470000F3B50C78BF20044065
:1020C0000D20641E4443002681B00F4601251548AB
:1020D000805DC1194878097800020843002D0DD0B1
:1020E00000F052FE0546202C18D261000198641CB5
:1020F000405A00F049FEA84210D102E00A49884245
:102100000CD1761C0D2EE2D33878400608D5002D70
:1021100006D001986100405A002801D00020FEBD81
:102120000120FEBD12390008FFFF0000F3B581B0A9
:10213000019C0F46FF34FF340234002906D0019879
:1021400001F02CF8022809D20120FEBDE668002E1D
:1021500002D06069B04207D8012605E0411CF4D0E6
:1021600061698142F1D83E46354660696D1CA842DE
:1021700002D80225022E0BD32946019801F00EF851
:10218000002807D0411CE0D00128DED0B542ECD1B8
:102190000020FEBD114A2946019801F0F0F90028FF
:1021A00008D1002F0BD02A463946019801F0E7F9F3
:1021B000002804D001280DD001252846FEBDE56089
:1021C0002069411CF9D0401E20616079012108433B
:1021D0006071F2E70025ED43EFE70000FFFFFF0F1E
:1021E000F3B585B006990D6800E06D1C29782F299C
:1021F000FBD05C29F9D0FF30FF300230039000247F
:10220000076A2646A85D761C202818D32F2816D0EA
:102210005C2814D0202C33D2012100F099FD0090CD
:1022200000282DD0802805D201466CA0FFF7C8FEFB
:10223000002825D1610000987852641CE2E7AA19B1
:10224000069920280A6001D2042517E0002515E030
:102250006000C0194038C08F20280ED02E280CD026
:10226000002C0DD000206100785203980B22806969
:10227000202101F061F9002606E0641E002CE7D160
:10228000062007B0F0BD761C7000385A2028FAD01E
:102290002E28F8D0002E03D00320054300E0641E52
:1022A000002C05D06000C0194038C08F2E28F6D110
:1022B000002000900290082004907000385A761C8C
:1022C0000190002822D0202803D02E2804D1A64235
:1022D00002D003200543F0E704990098884201D218
:1022E000A64219D10B290FD0A64201D003200543E5
:1022F000A6420BD8082000900B2004900298264696
:102300008006000E0290D8E70320054303988069F9
:102310000178E5293CD03DE0019880280FD30021C9
:1023200000F016FD0190002804D02F4908188038CD
:1023300000780190022005430198002805D001464D
:102340002AA0FFF73DFE002804D05F200190032063
:10235000054314E001984138192804D80298022155
:10236000084302900BE001986138192807D80298B9
:102370000121084302900198203880B2019003990E
:1023800001988A69009950540098401C009094E785
:102390000521017004980828029802D18006000ED9
:1023A00002900007800F032803D00299C9438907D0
:1023B00001D102210D43A9070AD402998907890F87
:1023C000012901D110210D43012801D10820054325
:1023D00003988069C572002053E70000222A3A3C26
:1023E0003E3F7C7F00000000923800082B2C3B3DD4
:1023F0005B5D000010B5401E022815D20C210B4A6F
:10240000484383185989CC1FF93C07D0002901D0D3
:10241000491E89B25981002902D003E00021F9E761
:1024200000211150002010BD022010BD50070020D7
:10243000F1B582B00021029800F09DF9002861D129
:10244000029EFF24FF36FF362F4800940236B084E8
:102450003169306801F077F8070052D17569287842
:10246000002809D0E97A8906890EE52840D00A07B4
:1024700004D50F293CD106E0042742E00F2902D001
:10248000002C1DD023E0326A002A34D0410606D544
:10249000697B0091BF210840F1880446B184A042C5
:1024A0000BD1697B0098814207D129461046FFF77E
:1024B00003FE002801D0641E00E0FF24E4B21AE00D
:1024C000284601F03FF901460098814219D0B069D1
:1024D000C17AC9070CD10A2101E0491E06D32A7826
:1024E0000378401C6D1CD21AF7D001E0002A08D0F6
:1024F0000548FF24B0840021029800F007F8070087
:10250000A6D03846FEBD0000FFFF0000F8B5C41D90
:10251000FF34FA34E6880F46761C3004000C35D0C0
:102520002069002832D031076CD1401C2061E1685D
:10253000002924D0374B206832091B5C5B1E1A42ED
:1025400060D100F02BFE0546012823D9681C3BD042
:102550008521206889000958A9424DD8002F15D03F
:10256000E168FFF7E3FD050012D0012D12D0681CD1
:102570002AD0206801F03DF9002825D10CE0206820
:10258000FF30FF3002300089B0423BD80420F8BD54
:102590000720F8BD0220F8BD012252020021206868
:1025A00000F0CAFF29462068FFF776FD2168FF3159
:1025B000FF3102310027C86210E00121017120685B
:1025C00001F017F9002801D00120F8BD2068FF3084
:1025D000FF300230C16A491C7F1CC1622068FF3095
:1025E000FF3002308178B942E7D82168FF31FF31EE
:1025F0000231C96AC91BC162E56029462068FFF73C
:102600004BFD2061E68031072068C90D40186061EC
:102610000020F8BD02020000F1B584B0049C0C2239
:10262000FF34FF340234A76968463946266A00F051
:102630007BFF6846C07AC00719D00020F8720125D8
:1026400020622B4632466946384600F069FD049800
:10265000FFF7EEFE002802D16D1C642DF1D3642D2E
:102660000BD004280AD16846C07AF8722662684600
:10267000C07A80070FD5002003E0072005B0F0BD29
:10268000401C4100715A0029FAD10D211930FDF783
:102690002BFD064600E0012604980021039000F07F
:1026A0006AF8002817D1039F0025FF37FF3702374C
:1026B0003969386800F047FF00280CD17869007844
:1026C000E5280BD0002809D0002501210398FFF749
:1026D0001DFF0028ECD0042810D010E06D1C3046FF
:1026E000B542F2D1461E0127002E27D0E088811B7B
:1026F000049800F040F8050003D03AE007200546B2
:1027000037E0A06901F01EF803902169206800F00D
:102710001AFF05002DD1F2B26169206A039B00F017
:1027200095FC20680021FF30FF30023007710498CB
:10273000FFF7ECFE05001CD1761EE6D1216920686A
:1027400000F001FF050014D120220021606900F093
:10275000F3FE0B22A169606900F0E6FEA069182172
:10276000C07A0840616908732068FF30FF3002308A
:102770000771284682E770B5C41DFF34FA34E18042
:10278000A3680D46012B3AD02068FF30FF3002309D
:102790004169994233D9002B05D10178032905D12C
:1027A000436A002B02D08078060113E00189A94218
:1027B00025D9406A14E000F0F1FC0346401C1CD00F
:1027C000022B1CD32068FF30FF3002304069984252
:1027D00015D9AD1B2068B5421946ECD2FFF75CFC59
:1027E000E36000280BD02909081820612907206818
:1027F000C90D40186061002070BD012070BD02202D
:1028000070BD000010B5094900220B5C002B0AD1F5
:1028100001220A540A18800040184068127A0168A0
:10282000104688470246104610BD0000AC07002045
:1028300030B4054C23188000001940681B7A0469E5
:102840001846A44630BC6047AC07002030B4054DA4
:1028500004462819A40064196468007AA468A44690
:1028600030BC6047AC070020044A11188000801873
:102870004068097A4268084610470000AC0700200B
:1028800030B4054D04462819A40064196468007A20
:10289000E468A44630BC6047AC07002010B504468D
:1028A00000F002FA00280ED1204600F0CCFF0028EC
:1028B00009D1FF34FF340234A06AFFF79BFD0028E2
:1028C00001D10021216010BDF7B582B003980090BE
:1028D000684600F031FD002802DA0B2005B0F0BD9B
:1028E000104E850074590027002C06D02046FFF7B3
:1028F000A7FBFF34FF34023427700298002802D06F
:10290000012149020F547051002802D00498012877
:1029100001D00020E2E7002203A902A800F046FA55
:10292000DCE7000048000020F7B5FFB091B00028B8
:102930000FD0C61DFF36D7060021FA36FF0E7A08E3
:102940003160520091A983A800F030FA040004D04D
:10295000BEE009207FB014B0F0BD8DA889905E481C
:102960008B9003A8919900F0A3FB889D04000CD1E3
:10297000002D03D0780803D0012102E0062404E0F2
:10298000002103A8FFF726FB0446F806400F64D099
:10299000002C1BD0042C13D14F490020183902E021
:1029A000401C022804D20C2242438A58002AF7D144
:1029B000022804D003A8FFF72FFE044600E01224EB
:1029C00008200743889D002C0AD081E0E87A112175
:1029D000084201D007247BE0780701D5082477E07E
:1029E000380749D500F040FCA873010AE973010CCF
:1029F0002974000E68740020E87228776877A87739
:102A0000E8772946839800F01BFD029000212846B4
:102A100000F067FE83990120FF31FF310231087118
:102A20000298002826D083980299FF30FF300230A8
:102A3000C06A0190839800F021FE040048D1839978
:102A40000298FF31FF31401E0231C860019983981E
:102A500000F079FD04000BD03AE0002C38D1E87A80
:102A6000C10601D5042433E0B90701D5C007B1D1AF
:102A7000380701D5202007438398FF30FF3002300C
:102A8000C06A3562F061780801D0012100E00021C0
:102A900003A800F06FFCB06200281BD0B7710027BC
:102AA000F7712946839800F0CBFC306128461D3031
:102AB000FDF753FB297FB7600002B76108437762D7
:102AC000F06083983060FF30FF300230C088B08003
:102AD00020463FE70224FBE768070020FFB589B0E6
:102AE00002910C98002101601546099800F0ABFE98
:102AF000002812D1099CFF34FF340234E079002809
:102B00000BD1A079C00707D0E168A0680127081A97
:102B1000854200D9054699E007200DB0F0BDA168B7
:102B2000C80578D14C4B20684A0A1B5C5B1E1A40D2
:102B30001606360E12D1002906D0626A002A05D088
:102B40000998FFF78DFA04E0206902E0616900F05E
:102B500025FB022820D3411C57D0606161692068A1
:102B6000FFF79AFA002817D080190090680A04909D
:102B700029D021683218FF31FF3102318878824232
:102B800001D9801B04904878049B009A0299FFF7B2
:102B90005DFE002839D102E00220E071BDE7A07996
:102BA00040060DD5A1690098081A0499884207D2F9
:102BB00041020298012208185202099900F0B4FC5F
:102BC0000498460236E0A2690098824221D0A0799A
:102BD00040060ED520680123FF30FF3002304078D8
:102BE0000999FFF74DFE00280FD1A079BF210840B9
:102BF000A07120680123FF30FF3002304078009A36
:102C00000999FFF723FE002803D0E771012084E72C
:102C100001E00098A06120890121C005C00D490292
:102C20000E1AAE4200D92E46099932464118029832
:102C300000F07AFC029880190290A0688019A060C8
:102C40000C98006881190C98AD1B0160002D00D014
:102C500065E7002061E700000202000033B5FFB025
:102C60008EB00D4600228DA980A800F09FF80400C8
:102C700014D18AA886900B48889068468D9900F0F8
:102C800017FA04000AD18598002806D0002D05D037
:102C90002946684600F0EAFA00E006247FB02046A4
:102CA00010B030BD6807002070B5054600F0CBFDC0
:102CB000002814D1EC1DFF34FA34A1798A060ED510
:102CC000480611D520680123FF30FF3002304078DC
:102CD0002946A269FFF7D4FD002801D0012070BD6C
:102CE000A079BF210840A071E169206800F02BFCA9
:102CF0000028F4D1256A2021E87A0843E872207B75
:102D00002877A089000A6877E068000CA877E06857
:102D1000000EE8772846216900F0E3FC00F0A4FAF1
:102D2000A875010AE975010C2976000E6876002065
:102D3000A874E874A079DF210840A07120680121FF
:102D4000FF30FF3002300171206800F008FD70BDD7
:102D5000802805D30B4A002909D0FF2801D900207B
:102D6000704740008018FF380138008870474B00DA
:102D7000D35A834203D0491C89B28029F7D38031CA
:102D8000C8B270474C3900080021064A00E0491CCF
:102D90004B00D35A002B04D08342F8D1480002499B
:102DA000085A70474C3A00082C3C0008F0B505461C
:102DB0008FB0002028601746084600F0BDFA0600D4
:102DC00002D50B200FB0F0BD9A49B0000C58002C72
:102DD00015D02C60E51DFF35FA352878002804D081
:102DE0006878FFF741FDC1070BD000202870F0B2D2
:102DF0006870FFF707FDC10709D00320E2E70C2048
:102E0000E0E7002F01D0400705D40020DAE7002FCB
:102E100003D0400701D50A20D4E7002631462046DA
:102E2000FFF796F8012826D130010719FF37BF3781
:102E30003879002807D038460930FDF78EF90102AD
:102E4000387A014300E00021B20009A8761C8150C5
:102E5000042EE9D30027B90009A84658002E06D051
:102E600031462046FFF774F8002801D10AE002201D
:102E70007F1C042FEFD3032802D000287CD101E06F
:102E800001209FE7E01C0690217BE27A08021043B4
:102E9000C11FFF39FA396FD1E08A002807D12046D7
:102EA0002530FDF75AF92421095D00020843A86185
:102EB0000D90217CE970012901D002295CD14143A8
:102EC0000491677BAF70002F56D0781E074253D114
:102ED000A17C627C080210432881089000074BD136
:102EE0000698417C027C0802104307D1204621301D
:102EF000FDF733F92021095D00020843E1890391C0
:102F0000002939D0049A8A1808990909511806919C
:102F1000884231D3401A3946FDF7E6F800282BD015
:102F200045490127884200D302274449884200D3FB
:102F30000327801C68610E90EE61039830182862A8
:102F400006997118A962032F18D00899002913D087
:102F50000499401868620E98022F1ED04100401854
:102F600041080E98C007C00F0818FF30FF3001302D
:102F70000D99400A814212D20D2023E708980028BB
:102F8000FAD120462D30FDF7E8F82C21095D00022A
:102F9000084368620E988000E7E74000E5E70020FC
:102FA000C0432861E86080206871032F36D1208EED
:102FB000012833D1711C204600F0C5FA00282DD11C
:102FC0006871FF20FF30005B1D49884226D1601CDC
:102FD000FDF7C3F82178000208431A4988421DD141
:102FE0002046FF30E630FDF7B8F82646FF36E136DA
:102FF000317900020843144988420FD13046093024
:10300000FDF7ABF8317A00020843286130460D30F5
:10301000FDF7A3F8317B00020843E86005482F70F4
:10302000001F0188491C0180E9802046FFF708F84D
:10303000EBE6000048000020F60F0000F6FF00005D
:1030400055AA00005252614172724161F0B5844646
:103050004B730F20C872002008738876C876541E00
:103060000D2044430025481C02E00F4EB34203D01C
:10307000660063469B5B641C0C4E775DCB551F0A54
:10308000765D002B375400D1074B6D1C0D2DECD312
:103090000548834204D063006046C05A002801D12D
:1030A000402002430A70F0BDFFFF00001239000803
:1030B00073B50199054608782F2801D05C2801D105
:1030C000491C0191EC1DFF340026FA34A6600198DA
:1030D0000078202805D200212846FFF74CFB6661C6
:1030E0007CBD01A92846FFF77BF80028F8D12846C7
:1030F000FFF79EF9A1690028C97A05D00428EFD10D
:103100004907EDD405207CBD4907FCD46169C87A24
:10311000C006F7D5206800F093F9A060E1E7000051
:103120007CB516461C4605460B2200F0FDF9052C21
:1031300011D9194A0CE00021B61C6300C407E40F42
:103140001C194008E30300D55440491C1029F4D34E
:1031500030880028EFD107216B462007000F303060
:10316000392800D9C01D5854491E2409F5D17E20A4
:103170005854002200E0521C8A4202D2A85C202847
:10318000F9D1082902D2585C491C00E02020A8543B
:10319000521C082AF5D37CBD21100100F0B585B082
:1031A0000C46074602290ED3FE1DFF36FA3670691B
:1031B000A04208D900253078ED43012807D0022825
:1031C0002ED003283CD00125284605B0F0BD60086C
:1031D00000190090316A400A0918384600F0B3F926
:1031E0000028F1D10098C005C00D385C039000980C
:1031F000401C0090316A400A0918384600F0A3F9D3
:103200000028E1D100980399C005C00D385C000288
:103210000843E10701D00509D6E705052D0DD3E7E1
:10322000306A210A4118384600F08DF90028CBD1C8
:103230002006C00DC019417800780D020543C3E790
:10324000306AE1094118384600F07DF90028BBD109
:103250006006C00DC419601CFCF77FFF21780002D6
:10326000084305012D09AFE700207047F8B5C71DD9
:10327000FF37FA370D46386909350C46002833D038
:103280007E690021705C491C202817D0052800D1D8
:10329000E520092902D12E222A706D1C0246413AEE
:1032A000192A09D8327B092901D3102300E0082309
:1032B0001A4201D02030C0B228706D1C0B29E1D316
:1032C000F07A207230461D30FCF747FF317F000254
:1032D00008432060707E317E00020843A080F07DAC
:1032E000B17D00020843E08000202870A669002E0E
:1032F0001FD038690025002819D0E069002816D0B1
:10330000B88C0C49884212D03F6A0CE00021FFF7CC
:103310001FFD002803D0E169491EA94201D80025FC
:1033200005E070556D1C3888BF1C0028EED10020C8
:103330007055F8BDFFFF000010B50446002022685C
:10334000C043002A13D0114600E0491C0B78202B03
:103350000ED33A2BF9D11378521C303B0A2B06D2EC
:103360008A4204D1002B02D1491C1846216010BDAD
:10337000002010BDF0B5C31D0022FF33FA332148F1
:103380001C680C2555434659A64208D12D186E6875
:103390009F68BE4203D12D89DE88B54202D0521CFF
:1033A000022AEED3022A15D1002202E0521C022A80
:1033B00004D20C2555434559002DF7D1022A11D0CE
:1033C0000C25554344512C189E686660DB88238188
:1033D00000236381002907D00C2151430918498932
:1033E000002907D00020F0BD0C215143091849895C
:1033F000491C01E0FF2101310C235343181841817E
:10340000501CF0BD5007002010B5012208A109484A
:10341000FFF75AFA002806D1012207490748FFF7AB
:1034200083FA002801D0002010BD012010BD00004B
:10343000000000004C0200207A3800087C040020C4
:103440000246FF32C87EFF328B7E023200021278C3
:103450001843032A05D14A7D0B7D11021943090443
:1034600008437047FDF7E6F9FEF7EAFCFEF778F847
:103470001948184901600021017141714161816160
:1034800001210162FDF712F8FEF7B0F8FEF75AF8D5
:1034900000F030F9FFF7B8FF002813D00FA2022187
:1034A0000020FEF721F8FCF73FFFFCF72BFF114946
:1034B0000860FCF76FFE002807D00FA20221002051
:1034C000FEF712F8FEF7DAF8FEE7FEF72FFD10A27E
:1034D000F4E7000000300240A806002055504441A7
:1034E000544520417661696C61626C65202E2E2EF8
:1034F00000000000100000202020444F574E4C4F89
:103500004144204641494C45442021200000000010
:1035100020202020444F574E4C4F4144204F4B20F9
:10352000212020200000000003E00B780370401CE5
:10353000491C521EF9D27047C9B201E00170401C0B
:10354000521EFBD27047F8B5C41DFF340746FA344B
:10355000E06A0E460025B0420FD0384600F049F927
:1035600005000AD16078012332463946FFF76EF92B
:10357000002801D06E1E0125E6622846F8BDF7B589
:1035800082B017460C4602290DD3029DFF35FF3548
:1035900002356869A04206D92878012807D0022898
:1035A0003FD003284DD00226304605B0F0BD60085C
:1035B00000190090296A400A09180298FFF7C3FF12
:1035C0000600F1D10098C1050298C90D08180099AC
:1035D000491C0091E10705D001780907090F3A015C
:1035E000114300E039460170012028710098296AD2
:1035F000400A09180298FFF7A6FF0600D4D10098E8
:10360000C1050298C90D0818E10702D03905090E55
:1036100005E001783A0509090901120F114301700B
:1036200029E0286A210A41180298FFF78CFF06005A
:10363000BAD12006C10D029808180770390A4170E6
:1036400019E0286AE10941180298FFF77CFF06009B
:10365000AAD16006C10D02980C18601CFCF77DFD14
:103660000002000F000738432070010A6170010C4E
:10367000A170000EE0700120287195E7F3B581B0CC
:103680000F4602291AD3019DFF35FF3502356869BF
:10369000B84213D900261FE039460198FFF77EFD96
:1036A00004001CD0012C09D0601C09D0002239462E
:1036B0000198FFF764FF060011D103E002260EE037
:1036C00001260CE02869411C05D0401C286168795E
:1036D00001210843687127466869B842DCD8304642
:1036E000FEBD81760A0AC2760A0C0275090E417582
:1036F0007047000010B5FDF78DFEC820FCF716FFDF
:10370000FDF7D7FD07A200210820FDF7EDFE06A278
:1037100002210020FDF7E8FE0948FCF707FFFDF74E
:10372000C8FD10BD53414100636865636B20666F3F
:103730007220757064617465202E2E2E00000000CA
:10374000B80B0000014600200B224308C0011818E6
:103750000B78491CC018C0B2521EF6D1704770B524
:10376000044600F046F8060041D1E51DFF35FA3564
:103770002878032833D16879012830D1420200210A
:103780002046FFF7D9FE2846552120388177AA2107
:10379000C1775221217061706121A1704122E270D4
:1037A0007223037143718271C171296901720A0A1E
:1037B00042720A0C8272090EC172E96801730A0A28
:1037C00042730A0C8273090EC173EA690123521C09
:1037D000EA6268782146FFF753F8002068710022FA
:1037E00068781146FFF724F8002800D001263046FB
:1037F00070BDF1B5009C0027FF34FF3402342079FE
:1038000000281ED0E56A607801232A460099FFF758
:1038100037F8002801D0012713E000202071206A2A
:10382000A169281A88420CD2E67808E0A069012331
:10383000451960782A460099FFF722F8761E022E75
:10384000F4D23846F8BD10B5002814D0FF30FF3050
:103850000230016800290ED0FF31FF3102310A78B1
:10386000002A08D0CA888088824204D14878FEF7AE
:10387000FBFFC00700D0092010BD4150502E6269E7
:103880006E000000000000000000010203040607B3
:103890000809809A90418E418F80454545494949A4
:1038A0008E8F9092924F994F555559999A9B9C9D06
:1038B0009E9F41494F55A5A5A6A7A8A9AAABAC2193
:1038C000AEAFB0B1B2B3B4B5B6B7B8B9BABBBCBDA0
:1038D000BEBFC0C1C2C3C4C5C6C7C8C9CACBCCCD90
:1038E000CECFD0D1D2D3D4D5D6D7D8D9DADBDCDD80
:1038F000DEDFE0E1E2E3E4E5E6E7E8E9EAEBECED70
:10390000EEEFF0F1F2F3F4F5F6F7F8F9FAFBFCFD5F
:10391000FEFF01030507090E10121416181C1E00E5
:103920000004000200018000400020001000080098
:103930000400020000000080004000200010000889
:10394000004000200010000800040002C700FC0036
:10395000E900E200E400E000E500E700EA00EB0037
:10396000E800EF00EE00EC00C400C500C900E6006E
:10397000C600F400F600F200FB00F900FF00D600DC
:10398000DC00A200A300A500A7209201E100ED0049
:10399000F300FA00F100D100AA00BA00BF00102322
:1039A000AC00BD00BC00A100AB00BB00912592257E
:1039B0009325022524256125622556255525632555
:1039C000512557255D255C255B25102514253425BB
:1039D0002C251C2500253C255E255F255A255425D0
:1039E00069256625602550256C2567256825642591
:1039F000652559255825522553256B256A251825F7
:103A00000C25882584258C2590258025B103DF0091
:103A10009303C003A303C303B500C403A603980321
:103A2000A903B4031E22C603B50329226122B100F3
:103A30006522642220232123F7004822B0001922A6
:103A4000B7001A227F20B200A025A000610062000A
:103A500063006400650066006700680069006A0032
:103A60006B006C006D006E006F00700071007200E2
:103A700073007400750076007700780079007A0092
:103A8000A100A200A300A500AC00AF00E000E1008F
:103A9000E200E300E400E500E600E700E800E900FA
:103AA000EA00EB00EC00ED00EE00EF00F000F100AA
:103AB000F200F300F400F500F600F800F900FA0057
:103AC000FB00FC00FD00FE00FF00010103010501F9
:103AD000070109010B010D010F011101130115016E
:103AE000170119011B011D011F01210123012501DE
:103AF000270129012B012D012F013101330135014E
:103B000037013A013C013E014001420144014601B6
:103B100048014B014D014F0151015301550157011E
:103B200059015B015D015F0161016301650167018D
:103B300069016B016D016F017101730175017701FD
:103B40007A017C017E019201B103B203B303B40395
:103B5000B503B603B703B803B903BA03BB03BC0389
:103B6000BD03BE03BF03C003C103C303C403C50336
:103B7000C603C703C803C903CA03300431043204AF
:103B800033043404350436043704380439043A0461
:103B90003B043C043D043E043F0440044104420411
:103BA00043044404450446044704480449044A04C1
:103BB0004B044C044D044E044F045104520453046E
:103BC0005404550456045704580459045A045B0419
:103BD0005C045E045F0470217121722173217421E1
:103BE000752176217721782179217A217B217C2109
:103BF0007D217E217F2141FF42FF43FF44FF45FF9E
:103C000046FF47FF48FF49FF4AFF4BFF4CFF4DFF70
:103C10004EFF4FFF50FF51FF52FF53FF54FF55FF20
:103C200056FF57FF58FF59FF5AFF0000410042005E
:103C300043004400450046004700480049004A0050
:103C40004B004C004D004E004F0050005100520000
:103C500053005400550056005700580059005A00B0
:103C60002100E0FFE1FFE5FFE2FFE3FFC000C1004C
:103C7000C200C300C400C500C600C700C800C90018
:103C8000CA00CB00CC00CD00CE00CF00D000D100C8
:103C9000D200D300D400D500D600D800D900DA0075
:103CA000DB00DC00DD00DE00780100010201040120
:103CB000060108010A010C010E0110011201140194
:103CC000160118011A011C011E0120012201240104
:103CD000260128012A012C012E0130013201340174
:103CE000360139013B013D013F01410143014501DD
:103CF00047014A014C014E01500152015401560145
:103D000058015A015C015E016001620164016601B3
:103D100068016A016C016E01700172017401760123
:103D200079017B017D019101910392039303940337
:103D3000950396039703980399039A039B039C03A7
:103D40009D039E039F03A003A103A303A403A50354
:103D5000A603A703A803A903AA03100411041204CD
:103D600013041404150416041704180419041A047F
:103D70001B041C041D041E041F042004210422042F
:103D800023042404250426042704280429042A04DF
:103D90002B042C042D042E042F040104020403041C
:103DA0000404050406040704080409040A040B04B7
:103DB0000C040E040F04602161216221632164213F
:103DC000652166216721682169216A216B216C21A7
:103DD0006D216E216F2121FF22FF23FF24FF25FF8C
:103DE00026FF27FF28FF29FF2AFF2BFF2CFF2DFF8F
:103DF0002EFF2FFF30FF31FF32FF33FF34FF35FF3F
:103E000036FF37FF38FF39FF3AFF00002C3E00082D
:103E1000000000204C0000000E1F0008783E000843
:103E20004C0000206C0D00001E1F0008000001085F
:103E30000000000001000000000000000000000081
:103E4000000000000000000000000000DD1E00086F
:103E5000FB1E0008F11E0008051F0008E71E0008F1
:103E600000000000000000000000000000127A00C6
:083E700000000000000000004A
:04000005080000B936
:00000001FF
